:020000040000FA
:040000000DEF00F010
:040008006CEF18F091
:06001800FF00DAEF17F013
:10260000004E6577205468726573686F6C64733A26
:1026100020256420746F2025640A0D0A0D00507275
:1026200065762E205468726573686F6C64733A2007
:10263000256420746F2025640A0D00546872657348
:10264000686F6C64204578636565646564210A0D74
:10265000004144434320526573756C743A202564ED
:102660000A0D000020C538F521C539F522C53AF517
:1026700023C53BF524C53CF525C53DF526C53EF5EE
:1026800027C53FF5010E3FAE000E366E376A365055
:10269000371010E03F1E3E1E3D1E3C1E3B1E3A1EE4
:1026A000391E386C000E39223A223B223C223D2250
:1026B0003E223F227DAF5D927DBF04D07D5106E179
:1026C0007C0504E2336A010E326E04D07CC532F51B
:1026D0007DC533F57AC534F57BC535F536503710F1
:1026E00002E15DA403D03406D8A03506416A1F0E6E
:1026F000406EA46B69D04006D8A04106ADD838C55D
:1027000001F539C502F53AC503F53BC504F53CC5ED
:1027100005F53DC506F53EC507F53FC508F50A0EAA
:10272000096E0A6A0B6A0C6A0D6A0E6A0F6A106AF1
:1027300067EC15F001C528F502C529F503C52AF592
:1027400004C52BF505C52CF506C52DF507C52EF5D9
:1027500008C52FF528C513F52AC514F595EC17F013
:102760001350300FDF6E3206D8A033063406D8A0DF
:10277000350638C501F539C502F53AC503F53BC53F
:1027800004F53CC505F53DC506F53EC507F53FC555
:1027900008F50A0E096E0A6A0B6A0C6A0D6A0E6A5F
:1027A0000F6A106A33EC14F001C538F502C539F52B
:1027B00003C53AF504C53BF505C53CF506C53DF531
:1027C00007C53EF508C53FF541BE1CD0415002E1AA
:1027D000400418E3385039103A103B103C103D10BB
:1027E0003E103F1088E133BE05D0335084E13204FF
:1027F000D8B081D735BE06D0355002E1340402E3AB
:102800005DB279D73650371002E15DA410D0400692
:10281000D8A041063650371003E1316A2B0E02D0A2
:10282000316A2D0E306E18D86100C0F4DFF41EC579
:1028300013F51FC514F5850E4024156E050E4120B5
:10284000166E34C517F535C518F5BCEC16F013C572
:102850001EF514C51FF51200850E4024D96E050E15
:102860004120DA6E1200126A10AE12D0101E0F1E36
:102870000E1E0D1E0C1E0B1E0A1E096C000E0A22D7
:102880000B220C220D220E220F221022010E126E9C
:1028900008AE12D0081E071E061E051E041E031ECB
:1028A000021E016C000E02220322042205220622CF
:1028B00007220822010E121A136A146A156A166A90
:1028C000176A186A196A1A6A09500A100B100C1054
:1028D0000D100E100F10101045E0010E116E0AD0F1
:1028E000D89009360A360B360C360D360E360F36B2
:1028F0001036112A10AEF4D7D89013361436153688
:1029000016361736183619361A360950015C0A5031
:1029100002580B5003580C5004580D5005580E50D7
:1029200006580F5007581050085811E30950015E1F
:102930000A50025A0B50035A0C50045A0D50055AB3
:102940000E50065A0F50075A1050085A1380D8904C
:1029500010320F320E320D320C320B320A32093283
:10296000112ECAD7125010E01A1E191E181E171E5B
:10297000161E151E141E136C000E1422152216228C
:102980001722182219221A2213C501F514C502F5BF
:1029900015C503F516C504F517C505F518C506F5E3
:1029A00019C507F51AC508F5120078D8250A6BE194
:1029B000610010F5D9F481D87A6B7B6B5D6A5E6A31
:1029C0007C697D696BD8640A03E068D8690A43E1D1
:1029D000610010F5D9F471D8610018F5D9F46100DF
:1029E0001CF5DAF461007CF348F5020EDE26610086
:1029F0007CF349F5000EDD22610020F5D9F4610079
:102A000024F5DAF4610078F34AF5610074F34BF5CC
:102A10004BBEFF0E4C6E4D6E4E6E4F6E506E516E35
:102A200042C51EF543C51FF54AC520F54BC521F526
:102A30004CC522F54DC523F54EC524F54FC525F5EA
:102A400050C526F551C527F532EC13F01EC542F5E9
:102A50001FC543F5120022D8250A0EE1610010F5CA
:102A6000D9F42BD8046A250E036E2CD8FCEC16F092
:102A7000436A010E426E010C610010F5D9F41DD8B5
:102A8000426A436A12000AD8036E046A1BD8FCEC3F
:102A900016F0610010F5D9F410D8EAD7610010F5EE
:102AA000D9F4610014F5DAF4DFC4F6F4260EF76EFB
:102AB000000EF86E0800F5501200610014F5DAF40B
:102AC000DF2A120042C505F543C506F51200126A59
:102AD00008AE03D06CD8010E126E10AE10D0101ECE
:102AE0000F1E0E1E0D1E0C1E0B1E0A1E096C000E64
:102AF0000A220B220C220D220E220F221022095034
:102B00000A100B100C100D100E100F1010103BE0DF
:102B1000010E116E0AD0D89009360A360B360C36E3
:102B20000D360E360F361036112A10AEF4D7095076
:102B3000015C0A5002580B5003580C5004580D50B9
:102B400005580E5006580F5007581050085810E3FB
:102B50000950015E0A50025A0B50035A0C50045A95
:102B60000D50055A0E50065A0F50075A1050085A69
:102B7000D89010320F320E320D320C320B320A3234
:102B80000932112ED4D7125001E011D801C501F538
:102B900002C502F503C503F504C504F505C505F531
:102BA00006C506F507C507F508C508F51200081E95
:102BB000071E061E051E041E031E021E016C000ECB
:102BC0000222032204220522062207220822000CE8
:102BD000BE6ABF6AC06AC16AC26AC36AC668C76899
:102BE000C868C9680F0ECA6EFE0ECB6E010E0401D6
:102BF000006F086B106B186B206B286B016B096BF7
:102C0000116B196B216B296B0201896B886B876BC8
:102C1000866B0401026B0A6B126B1A6B226B2A6BB8
:102C200003690B6913691B69070E236F2B6904691C
:102C30000C6914691C690F0E246F2C690C0E0201BB
:102C4000696F130E486F290E726F200E296F0401F1
:102C5000056B066B076B0D6B0E6B0F6B156B166BB5
:102C6000176B256B266B276B1200A290000E016A72
:102C7000026A036A7BEC18F0A292000E016A026AF3
:102C8000036A7AEC18F0A294000E016A026A036AE1
:102C90007CEC18F0A296000E016A026A036A79ECD5
:102CA00018F00201A16BA26BA36BA46BA56BA66BC2
:102CB000A76BA86BA96BAA6BA00EAB6F800EAC6F55
:102CC000AD6B190EAE6FAF6BB06BB16BB26BB36B1C
:102CD000000E016A026A036A50EC18F0000E016AE5
:102CE000026A036A49EC18F0000E016A026A036A7C
:102CF00057EC18F05F6A12002BEC18F00301EC6B34
:102D0000EC0E016E300E026E000E036E65EC18F0D4
:102D1000D68E05017E51FDE07E6B3B0E586E0FECAA
:102D200018F0510E586E37EC18F001C559F502C570
:102D30005AF50FEC18F01E0E586E030110D80FEC68
:102D400018F037EC18F0610004F4DFF3610008F4C8
:102D5000E0F3010E586E03D80FEC18F0DAD7DF510C
:102D6000D925596EE051DA215A6EDF51DB255B6EB1
:102D7000E051DC215C6E12005DA003D034D87CEC05
:102D800017F018BE05D017C51CF518C51DF502D0E3
:102D90001C6A1D6A1A6A1B6A0BD0046A200E036E35
:102DA00013C505F514C506F5FCEC16F01A4A1B2AE6
:102DB0001C501A5C1B50800A196E1D50800A19584D
:102DC000ECE35DB003D00FD87CEC17F015C501F52E
:102DD00016C502F5C4EC17F01C500124136E1D50EB
:102DE0000220146E120015C50CF516C50DF513C59D
:102DF0000EF514C50FF512000550061003E005503E
:102E0000061003E1035072EF18F01ED8DE50DE10FA
:102E100011E01AD810EE02F00550E1260650E22229
:102E2000DE50E65CE650800A0B6EDE50800A0B58DE
:102E3000D8B0120020EE02F00550D9260650DA2252
:102E4000DE2A000EDD22000C20EE04F00550D9260B
:102E50000650DA221200FC0E0301D96FDA69040E63
:102E6000DB6FDC6BDF6BE06BE56BE76BEC6BEE69EC
:102E70001F0EEF6FF06BF16BF26BF46B100EF56FD2
:102E8000140EF66FF76BF86B040EF96FFA6B840E85
:102E9000F36FAF94B090000E016E310E026E000E13
:102EA000036E65EC18F0A080120054C557F5786BDE
:102EB000796B13D052C542F553C543F5570E446E96
:102EC000050E456E55C546F556C547F5D5EC14F0CB
:102ED0004250050178274350792361005CF5F6F4F0
:102EE000260EF76E000EF86E0800F550E3E178C587
:102EF00052F579C553F51200116A126A0BD010C54C
:102F000003F5046A0EC505F50FC506F5FCEC16F0D1
:102F1000114A122A11500C24D96E12500D20DA6E6B
:102F2000DF50106E1050EBE1120014BE04D01450AC
:102F30000FE113040DE213C515F514C516F5151EA2
:102F4000161E154A162A15C513F516C514F51200D6
:102F500013C513F514C514F51200D69AAF90D68098
:102F6000000E016A026A036A7FEC18F0B490D68200
:102F7000000E016A026A036A7EEC18F0B890D684EB
:102F8000016A026A036A000C01C503F502C504F573
:102F900002D0014A022A610004F4D9F4610008F465
:102FA000DAF4DF50F6E10350015C016E0450025880
:102FB000026E120001EE60F1450EEE6AE806FDE1D8
:102FC0005F6A5E6A5D6A0401080E5D6F000E5E6FE7
:102FD000000E5F6F00017CEF16F0040E266F256B6C
:102FE000276BF20E236F226B000E016A026A036ADE
:102FF0005EEC18F0B196F00E246FF00CB090050165
:10300000B151B211B311D8B412000500FA6EB1512A
:10301000FD6EB251FE6EB351FF6EFA501200590EA2
:103020000501B66F050EB76F526A536A58C554F55D
:10303000B60E556E050E566E55EF17F0620E000176
:10304000AD6F700EAE6FAF6BB36B020EB16FB26B44
:10305000B06BAC6B12001EEC18F0E8EC15F02BEC2A
:1030600017F0EDEC17F035EC16F0ADEF17F00301AB
:10307000EB51046E036AEA510324016E000E042032
:10308000026E1200016EB2A2FED7610004F4A3F238
:10309000120001C5A8F502C5A9F503C5AAF51200DD
:1030A00001C5ABF502C5ACF503C5ADF5120001C510
:1030B000A5F502C5A6F503C5A7F5120001C5AEF535
:1030C00002C5AFF503C5B0F5120001C5B1F502C5E3
:1030D000B2F503C5B3F51200A0B0B0A01100FEEC2C
:1030E00017F01100026E025042EF18F0010E7E6FD1
:1030F000010C120012001200120012001200120045
:023100001200BB
:020000040020DA
:10000000FF0FFF0FFF0FFF0FFF0FFF0FFF0FFF0F80
:10001000FF0FFF0FFF0FFF0FFF0FFF0FFF0FFF0F70
:020000040030CA
:0A000000ECFFF7FF9FFFFFFFFFFF7B
:00000001FF
