:020000040000FA
:040000000DEF00F010
:0400080060EF1AF09B
:06001800FF0071EF1AF079
:1026000000562F000000001C3500000000000000F4
:102610009E35009035007435000000000000000079
:102620000000000000000000443400000000000032
:1026300000000000AC35000000004E6577205468B3
:10264000726573686F6C64733A20256420746F2020
:1026500025640A0D0A0D00507265762E20546872AA
:102660006573686F6C64733A20256420746F20254D
:10267000640A0D005468726573686F6C6420457855
:10268000636565646564210A0D004144434320523B
:0D2690006573756C743A2025640A0D000016
:10269E0020C538F521C539F522C53AF523C53BF5D8
:1026AE0024C53CF525C53DF526C53EF527C53FF5A8
:1026BE003FBE64EF13F067EF13F0010E68EF13F0F7
:1026CE00000E366E376A36503710D8B471EF13F0ED
:1026DE0073EF13F083EF13F03F1E3E1E3D1E3C1EA4
:1026EE003B1E3A1E391E386C000E39223A223B220E
:1026FE003C223D223E223F2205017DBF89EF13F091
:10270E008BEF13F08CEF13F07E937DBF99EF13F0E8
:10271E007D5106E17C05D8B097EF13F099EF13F0D9
:10272E009FEF13F0000E336E010E326EA3EF13F017
:10273E007CC532F57DC533F57AC534F57BC535F5E7
:10274E0036503710D8A4AEEF13F0B0EF13F0B7EF4A
:10275E0013F07EA5B5EF13F0B7EF13F0BAEF13F049
:10276E003406D8A03506000E416E1F0E406E000EC8
:10277E00A76F3EEF14F04006D8A04106880E402405
:10278E00D96E050E4120DA6E38C501F539C502F550
:10279E003AC503F53BC504F53CC505F53DC506F543
:1027AE003EC507F53FC508F50A0E096E000E0A6E06
:1027BE00000E0B6E000E0C6E000E0D6E000E0E6EE9
:1027CE00000E0F6E000E106E85EC16F001C528F58A
:1027DE0002C529F503C52AF504C52BF505C52CF54B
:1027EE0006C52DF507C52EF508C52FF528C513F519
:1027FE002AC514F5ABEC19F01350300FDF6E32060C
:10280E00D8A033063406D8A0350638C501F539C52B
:10281E0002F53AC503F53BC504F53CC505F53DC5C6
:10282E0006F53EC507F53FC508F50A0E096E000E02
:10283E000A6E000E0B6E000E0C6E000E0D6E000E6C
:10284E000E6E000E0F6E000E106EC1EC15F001C56F
:10285E0038F502C539F503C53AF504C53BF505C58E
:10286E003CF506C53DF507C53EF508C53FF541BE2D
:10287E0049EF14F0415008E14004D8A049EF14F09C
:10288E004BEF14F07CEF14F0385039103A103B1027
:10289E003C103D103E103F10D8A458EF14F05AEFE4
:1028AE0014F0C2EF13F033BE67EF14F0335006E1AD
:1028BE003204D8B065EF14F067EF14F0C2EF13F0E6
:1028CE0035BE72EF14F0355008E13404D8A072EF23
:1028DE0014F074EF14F07CEF14F005017EB37AEF70
:1028EE0014F07CEF14F0C2EF13F036503710D8A46A
:1028FE0083EF14F085EF14F08DEF14F005017EA533
:10290E008BEF14F08DEF14F0ACEF14F04006D8A05E
:10291E00410636503710D8A497EF14F099EF14F003
:10292E009FEF14F0000E316E2B0E306EA3EF14F0ED
:10293E00000E316E2D0E306E880E4024D96E050EAF
:10294E004120DA6E6100C0F4DFF41EC513F51FC519
:10295E0014F5880E4024156E050E4120166E34C5F2
:10296E0017F535C518F512EC18F013C51EF514C57C
:10297E001FF51200610010F5D9F4610014F5DAF4B8
:10298E00DEC4F6F4DDC4F7F4000EF86E0800F55060
:10299E00250AD8A4D5EF14F0D7EF14F09FEF15F059
:1029AE00610010F5D9F4610014F5DAF4DE2A000E98
:1029BE00DD22000E05017B6F000E7A6F7AC57EF563
:1029CE007BC57FF57C697D69610010F5D9F46100E6
:1029DE0014F5DAF4DEC4F6F4DDC4F7F4000EF86E86
:1029EE000800F550640AD8B4FFEF14F001EF15F0AB
:1029FE0017EF15F0610010F5D9F4610014F5DAF453
:102A0E00DEC4F6F4DDC4F7F4000EF86E0800F550DF
:102A1E00690AD8A415EF15F017EF15F061EF15F050
:102A2E00610010F5D9F4610014F5DAF4DE2A000E17
:102A3E00DD22610018F5D9F461001CF5DAF46100AD
:102A4E007CF348F5020EDE2661007CF349F5000E9C
:102A5E00DD22610020F5D9F4610024F5DAF461007D
:102A6E0078F34AF5610074F34BF5000E4BBEFF0E82
:102A7E004C6E4D6E4E6E4F6E506E516E42C51EF5C3
:102A8E0043C51FF54AC520F54BC521F54CC522F5AA
:102A9E004DC523F54EC524F54FC525F550C526F574
:102AAE0051C527F54FEC13F01EC542F51FC543F572
:102ABE00C0EF15F0610010F5D9F4610014F5DAF4E9
:102ACE00DEC4F6F4DDC4F7F4000EF86E0800F5501F
:102ADE00250AD8A475EF15F077EF15F090EF15F0E5
:102AEE00610010F5D9F4610014F5DAF4DE2A000E57
:102AFE00DD22000E046E250E036E42C505F543C59C
:102B0E0006F5D2EC18F0000E436E010E426EC0EFC9
:102B1E0015F0610010F5D9F4610014F5DAF4DE2A2F
:102B2E00000EDD22000E436E000E426EC0EF15F059
:102B3E00610010F5D9F4610014F5DAF4DEC4F6F490
:102B4E00DDC4F7F4000EF86E0800F550036E046A4B
:102B5E0042C505F543C506F5D2EC18F0610010F537
:102B6E00D9F4610014F5DAF4DE2A000EDD228AEFC4
:102B7E0015F01200000E126E10BECAEF15F0C8EF5F
:102B8E0015F0DCEF15F0101E0F1E0E1E0D1E0C1E86
:102B9E000B1E0A1E096C000E0A220B220C220D229D
:102BAE000E220F221022010E126E08BEE3EF15F058
:102BBE00E1EF15F0F5EF15F0081E071E061E051EB7
:102BCE00041E031E021E016C000E022203220422AA
:102BDE000522062207220822010E121A21EE13F1F7
:102BEE00070EDE6AE806FDE209500A100B100C1003
:102BFE000D100E100F101010D8B408EF16F00AEFCB
:102C0E0016F05CEF16F0010E116E18EF16F0D8905C
:102C1E0009360A360B360C360D360E360F36103692
:102C2E00112A10AE1DEF16F01FEF16F00EEF16F074
:102C3E00D89013361436153616361736183619360A
:102C4E001A360950015C0A5002580B5003580C50AA
:102C5E0004580D5005580E5006580F500758105076
:102C6E000858D8A03DEF16F03FEF16F050EF16F0D3
:102C7E000950015E0A50025A0B50035A0C50045A66
:102C8E000D50055A0E50065A0F50075A1050085A3A
:102C9E001380D89010320F320E320D320C320B32AE
:102CAE000A320932112E1FEF16F01250D8B462EF0D
:102CBE0016F064EF16F074EF16F01A1E191E181E99
:102CCE00171E161E151E141E136C000E142215222E
:102CDE0016221722182219221A2213C501F514C51D
:102CEE0002F515C503F516C504F517C505F518C586
:102CFE0006F519C507F51AC508F51200000E126E75
:102D0E0008BE8EEF16F08CEF16F0A0EF16F0081E30
:102D1E00071E061E051E041E031E021E016C000E5B
:102D2E000222032204220522062207220822010E75
:102D3E00126E10BEA7EF16F0A5EF16F0B7EF16F055
:102D4E00101E0F1E0E1E0D1E0C1E0B1E0A1E096CD3
:102D5E00000E0A220B220C220D220E220F2210220E
:102D6E0009500A100B100C100D100E100F10101031
:102D7E00D8B4C4EF16F0C6EF16F00EEF17F0010E32
:102D8E00116ED4EF16F0D89009360A360B360C3683
:102D9E000D360E360F361036112A10AED9EF16F04C
:102DAE00DBEF16F0CAEF16F00950015C0A5002581C
:102DBE000B5003580C5004580D5005580E50065821
:102DCE000F50075810500858D8A0F0EF16F0F2EF39
:102DDE0016F002EF17F00950015E0A50025A0B501E
:102DEE00035A0C50045A0D50055A0E50065A0F50E5
:102DFE00075A1050085AD89010320F320E320D3238
:102E0E000C320B320A320932112EDBEF16F0125051
:102E1E00D8B414EF17F016EF17F026EF17F0081EC0
:102E2E00071E061E051E041E031E021E016C000E4A
:102E3E00022203220422052206220722082201C5AD
:102E4E0001F502C502F503C503F504C504F505C574
:102E5E0005F506C506F507C507F508C508F5120000
:102E6E00000EBE6E000EBF6E000EC06E000EC16E66
:102E7E00000EC26E000EC36EC668C768C868C96809
:102E8E000F0ECA6EFE0ECB6E010E0401006F000E09
:102E9E00086F000E106F000E186F000E206F000EE0
:102EAE00286F000E016F000E096F000E116F000EDD
:102EBE00196F000E216F000E296F000E0201896F2F
:102ECE00000E886F000E876F000E866F000E0401D5
:102EDE00026F000E0A6F000E126F000E1A6F000EB8
:102EEE00226F000E2A6F03690B6913691B69070EA7
:102EFE00236F2B6904690C6914691C690F0E246F0A
:102F0E002C690C0E0201696F130E486F290E726F39
:102F1E00200E296F000E0401056F000E066F000EC5
:102F2E00076F000E0D6F000E0E6F000E0F6F000E6E
:102F3E00156F000E166F000E176F000E256F000E28
:102F4E00266F000E276F1200A290000E016E000E6B
:102F5E00026E000E036EB3EC1AF0A292000E016E1A
:102F6E00000E026E000E036EACEC1AF0A294000E70
:102F7E00016E000E026E000E036EC1EC1AF0A296E8
:102F8E00000E016E000E026E000E036EA5EC1AF01E
:102F9E00000E0201A16F000EA26F000EA36F000EB5
:102FAE00A46F000EA56F000EA66F000EA76F000E89
:102FBE00A86F000EA96F000EAA6FA00EAB6F800E49
:102FCE00AC6F000EAD6F190EAE6F000EAF6F000E30
:102FDE00B06F000EB16F000EB26F000EB36F000E29
:102FEE00016E000E026E000E036EC8EC1AF0000E9B
:102FFE00016E000E026E000E036EBAEC1AF0000E99
:10300E00016E000E026E000E036ECFEC1AF0000E73
:10301E000501816F120005017EA118EF18F01AEF5D
:10302E0018F024EF18F015C50CF516C50DF513C5DF
:10303E000EF514C50FF589EC19F018BE29EF18F02E
:10304E002BEF18F031EF18F017C51CF518C51DF54C
:10305E0035EF18F0000E1D6E000E1C6E000E1B6E6E
:10306E00000E1A6E47EF18F0000E046E200E036E5F
:10307E0013C505F514C506F5D2EC18F01A4A1B2A2D
:10308E001C501A5C1B50800A196E1D50800A19586C
:10309E00D8A054EF18F056EF18F03BEF18F00501DA
:1030AE007EB15CEF18F05EEF18F068EF18F015C502
:1030BE000CF516C50DF513C50EF514C50FF589ECF7
:1030CE0019F015C501F516C502F5EBEC19F01C50FB
:1030DE000124136E1D500220146E120081EC1AF0A2
:1030EE00000E0301EC6FFC0E016E350E026E000E2B
:1030FE00036EF2EC1AF0D68E05018051D8B48AEF29
:10310E0018F08CEF18F083EF18F0000E806F740E2D
:10311E005A6E260E5B6E3AEC1AF08A0E5A6E260E18
:10312E005B6E9AEC1AF001C55CF502C55DF53AECE2
:10313E001AF0570E5A6E260E5B6E0301DF51D9251B
:10314E005C6EE051DA215D6EDF51DB255E6EE05183
:10315E00DC215F6E3AEC1AF09AEC1AF0610004F47E
:10316E00DFF3610008F4E0F33A0E5A6E260E5B6E42
:10317E000301DF51D9255C6EE051DA215D6EDF511E
:10318E00DB255E6EE051DC215F6E3AEC1AF083EFC8
:10319E0018F00DEF00F005500610D8B4D9EF18F066
:1031AE00DBEF18F0E4EF18F005500610D8A4E2EFAC
:1031BE0018F0E4EF18F0E9EF18F00350F9EC1AF0FC
:1031CE001CEF19F020EE04F00550D9260650DA2235
:1031DE00DE50DE10D8B4F6EF18F0F8EF18F013EF5B
:1031EE0019F020EE04F00550D9260650DA2210EE22
:1031FE0002F00550E1260650E222DE50E65CE65073
:10320E00800A0B6EDE50800A0B58D8B011EF19F001
:10321E0013EF19F01CEF19F020EE02F00550D9262D
:10322E000650DA22DE2A000EDD221200FC0E030109
:10323E00D96FDA69040EDB6F000EDC6F000EDF6FE4
:10324E00000EE06F000EE56F000EE76F000EEC6FE4
:10325E00EE691F0EEF6F000EF06F000EF16F000E95
:10326E00F26F000EF46F100EF56F140EF66F000E67
:10327E00F76F000EF86F040EF96F000EFA6F840EE2
:10328E00F36FAF94B090040E016E360E026E000E08
:10329E00036EF2EC1AF0A080120054C558F555C515
:1032AE0059F5000E0501796F000E786F72EF19F067
:1032BE0052C542F553C543F5580E446E050E456E84
:1032CE0056C546F557C547F5C1EC14F042500501F9
:1032DE00782743507923610060F5F6F4610064F5B8
:1032EE00F7F4000EF86E0800F5500009D8A482EF2E
:1032FE0019F084EF19F05FEF19F078C552F579C522
:10330E0053F51200000E126E000E116E9AEF19F0A8
:10331E0010C503F5046A0EC505F50FC506F5D2EC0A
:10332E0018F0114A122A11500C24D96E12500D2089
:10333E00DA6EDF50106E1050D8A4A8EF19F0AAEF75
:10334E0019F08FEF19F0120014BEB8EF19F01450E7
:10335E0006E11304D8B0B6EF19F0B8EF19F0C6EFC6
:10336E0019F013C515F514C516F5151E161E154ABA
:10337E00162A15C513F516C514F5CAEF19F013C59F
:10338E0013F514C514F51200D69AAF90D680000E20
:10339E00016E000E026E000E036EEBEC1AF0B4908E
:1033AE00D682000E016E000E026E000E036EE4EC6D
:1033BE001AF0B890D684000E016E000E026E000E4A
:1033CE00036EDDEC1AF0120001C503F502C504F51B
:1033DE00F3EF19F0014A022A610004F4D9F46100F6
:1033EE0008F4DAF4DF50D8A4FFEF19F001EF1AF069
:1033FE00F1EF19F00350015C016E04500258026E99
:10340E001200B0900501C951CA11CB11D8B412EFF8
:10341E001AF014EF1AF021EF1AF002D821EF1AF079
:10342E000500FA6EC951FD6ECA51FE6ECB51FF6E8C
:10343E00FA5012001200040E0301266F000E256FC3
:10344E00000E276FF20E236F000E226F000E016E1C
:10345E00000E026E000E036ED6EC1AF0B196F00E50
:10346E000301246F12005C0E0501CE6F050ECF6FA7
:10347E00000E526E000E536E5AC554F55BC555F5CF
:10348E00CE0E566E050E576E54EC19F01200620EEB
:10349E000001AD6F700EAE6F000EAF6F000EB36F0A
:1034AE00020EB16F000EB26F000EB06F000EAC6F59
:1034BE001200A0A065EF1AF067EF1AF070EF1AF085
:1034CE00B0A06CEF1AF06EEF1AF070EF1AF008EC75
:1034DE001AF0110001EE60F1480EEE6AE806FDE109
:1034EE000401080E5D6F000E5E6F000E5F6F00012F
:1034FE0075EF18F04EEC1AF037EC17F01DEC19F0D2
:10350E0022EC1AF0ABEC17F0CBEC19F01200016EB6
:10351E00B2A294EF1AF096EF1AF08FEF1AF0610044
:10352E0004F4A3F212000301EB51046E036AEA5194
:10353E000324016E000E0420026E120001C5BDF5BB
:10354E0002C5BEF503C5BFF5120001C5C3F502C520
:10355E00C4F503C5C5F5120001C5C6F502C5C7F50C
:10356E0003C5C8F5120001C5ABF502C5ACF503C520
:10357E00ADF5120001C5C0F502C5C1F503C5C2F512
:10358E00120001C5AEF502C5AFF503C5B0F51200C8
:10359E0001C5A8F502C5A9F503C5AAF5120001C516
:1035AE00B1F502C5B2F503C5B3F5120001C5B4F508
:1035BE0002C5B5F503C5B6F5120001C5B7F502C5CE
:1035CE00B8F503C5B9F5120001C5BAF502C5BBF5CC
:1035DE0003C5BCF5120001C5C9F502C5CAF503C580
:1035EE00CBF51200026E02508EEC1AF01200010E94
:0835FE000501806F12001200AC
:020000040020DA
:10000000FF0FFF0FFF0FFF0FFF0FFF0FFF0FFF0F80
:10001000FF0FFF0FFF0FFF0FFF0FFF0FFF0FFF0F70
:020000040030CA
:0A000000ECFFF7FF9FFFFFFFFFFF7B
:00000001FF
